{"abi":[{"type":"function","name":"claimReward","inputs":[{"name":"merkleRoot","type":"bytes32","internalType":"bytes32"},{"name":"amount","type":"uint256","internalType":"uint256"},{"name":"proof","type":"bytes32[]","internalType":"bytes32[]"}],"outputs":[],"stateMutability":"nonpayable"},{"type":"function","name":"competitionToken","inputs":[],"outputs":[{"name":"","type":"address","internalType":"contract CompetitionToken"}],"stateMutability":"view"},{"type":"function","name":"competitions","inputs":[{"name":"","type":"bytes32","internalType":"bytes32"}],"outputs":[{"name":"rewardAmount","type":"uint256","internalType":"uint256"}],"stateMutability":"view"},{"type":"function","name":"createCompetition","inputs":[{"name":"merkleRoot","type":"bytes32","internalType":"bytes32"},{"name":"rewardAmount","type":"uint256","internalType":"uint256"}],"outputs":[],"stateMutability":"nonpayable"},{"type":"function","name":"getAvailableBGT","inputs":[],"outputs":[{"name":"","type":"uint256","internalType":"uint256"}],"stateMutability":"view"},{"type":"function","name":"getEarnedBGT","inputs":[],"outputs":[{"name":"","type":"uint256","internalType":"uint256"}],"stateMutability":"view"},{"type":"function","name":"getUserCompetitions","inputs":[{"name":"user","type":"address","internalType":"address"}],"outputs":[{"name":"","type":"bytes32[]","internalType":"bytes32[]"}],"stateMutability":"view"},{"type":"function","name":"hasUserClaimed","inputs":[{"name":"user","type":"address","internalType":"address"},{"name":"merkleRoot","type":"bytes32","internalType":"bytes32"}],"outputs":[{"name":"","type":"bool","internalType":"bool"}],"stateMutability":"view"},{"type":"function","name":"initialize","inputs":[{"name":"_rewardVault","type":"address","internalType":"address"}],"outputs":[],"stateMutability":"nonpayable"},{"type":"function","name":"initialized","inputs":[],"outputs":[{"name":"","type":"bool","internalType":"bool"}],"stateMutability":"view"},{"type":"function","name":"owner","inputs":[],"outputs":[{"name":"","type":"address","internalType":"address"}],"stateMutability":"view"},{"type":"function","name":"registerRewardVault","inputs":[{"name":"_rewardVault","type":"address","internalType":"address"}],"outputs":[],"stateMutability":"nonpayable"},{"type":"function","name":"rewardVault","inputs":[],"outputs":[{"name":"","type":"address","internalType":"contract IRewardVault"}],"stateMutability":"view"},{"type":"function","name":"totalAllocatedBGT","inputs":[],"outputs":[{"name":"","type":"uint256","internalType":"uint256"}],"stateMutability":"view"},{"type":"function","name":"transferOwnership","inputs":[{"name":"newOwner","type":"address","internalType":"address"}],"outputs":[],"stateMutability":"nonpayable"},{"type":"event","name":"CompetitionCreated","inputs":[{"name":"merkleRoot","type":"bytes32","indexed":true,"internalType":"bytes32"},{"name":"rewardAmount","type":"uint256","indexed":false,"internalType":"uint256"}],"anonymous":false},{"type":"event","name":"OwnershipTransferred","inputs":[{"name":"user","type":"address","indexed":true,"internalType":"address"},{"name":"newOwner","type":"address","indexed":true,"internalType":"address"}],"anonymous":false},{"type":"event","name":"RewardClaimed","inputs":[{"name":"merkleRoot","type":"bytes32","indexed":true,"internalType":"bytes32"},{"name":"user","type":"address","indexed":true,"internalType":"address"},{"name":"amount","type":"uint256","indexed":false,"internalType":"uint256"}],"anonymous":false},{"type":"event","name":"RewardVaultRegistered","inputs":[{"name":"rewardVault","type":"address","indexed":true,"internalType":"address"}],"anonymous":false},{"type":"error","name":"AlreadyClaimed","inputs":[]},{"type":"error","name":"AlreadyInitialized","inputs":[]},{"type":"error","name":"CompetitionExists","inputs":[]},{"type":"error","name":"InsufficientBGT","inputs":[]},{"type":"error","name":"InvalidAmount","inputs":[]},{"type":"error","name":"InvalidMerkleProof","inputs":[]},{"type":"error","name":"InvalidRewardVault","inputs":[]},{"type":"error","name":"NotInitialized","inputs":[]},{"type":"error","name":"NotRewardVaultOwner","inputs":[]},{"type":"error","name":"RewardVaultAlreadySet","inputs":[]}],"bytecode":{"object":"0x60a060405234801561000f575f5ffd5b5033805f5f6101000a81548173ffffffffffffffffffffffffffffffffffffffff021916908373ffffffffffffffffffffffffffffffffffffffff1602179055508073ffffffffffffffffffffffffffffffffffffffff165f73ffffffffffffffffffffffffffffffffffffffff167f8be0079c531659141344cd1fd0a4f28419497f9722a3daafe3b4186f6b6457e060405160405180910390a35060126040516100b990610115565b6100c39190610214565b604051809103905ff0801580156100dc573d5f5f3e3d5ffd5b5073ffffffffffffffffffffffffffffffffffffffff1660808173ffffffffffffffffffffffffffffffffffffffff1681525050610253565b61232480611f2583390190565b5f82825260208201905092915050565b7f436f6d7065746974696f6e20546f6b656e0000000000000000000000000000005f82015250565b5f610166601183610122565b915061017182610132565b602082019050919050565b7f43540000000000000000000000000000000000000000000000000000000000005f82015250565b5f6101b0600283610122565b91506101bb8261017c565b602082019050919050565b5f819050919050565b5f60ff82169050919050565b5f819050919050565b5f6101fe6101f96101f4846101c6565b6101db565b6101cf565b9050919050565b61020e816101e4565b82525050565b5f6060820190508181035f83015261022b8161015a565b9050818103602083015261023e816101a4565b905061024d6040830184610205565b92915050565b608051611c9e6102875f395f8181610cc301528181610f9c015281816110cd0152818161115d01526112e70152611c9e5ff3fe608060405234801561000f575f5ffd5b50600436106100f3575f3560e01c8063589c7f6411610095578063c4d66de811610064578063c4d66de814610271578063d1ef5cdf1461028d578063f2fde38b146102ab578063fbc69f61146102c7576100f3565b8063589c7f64146101fb5780635913e6801461021957806375215253146102375780638da5cb5b14610253576100f3565b80633a2c6777116100d15780633a2c6777146101615780633d1960bb1461017f5780633ff731f6146101af5780634d432178146101df576100f3565b8063158ef93e146100f7578063252d34b6146101155780632866b95a14610145575b5f5ffd5b6100ff6102e5565b60405161010c91906114a9565b60405180910390f35b61012f600480360381019061012a91906114fd565b6102f7565b60405161013c9190611540565b60405180910390f35b61015f600480360381019061015a91906115e4565b610311565b005b610169610622565b60405161017691906116cf565b60405180910390f35b61019960048036038101906101949190611723565b610647565b6040516101a69190611805565b60405180910390f35b6101c960048036038101906101c49190611825565b6106dc565b6040516101d691906114a9565b60405180910390f35b6101f960048036038101906101f49190611863565b610741565b005b6102036109fb565b6040516102109190611540565b60405180910390f35b610221610a99565b60405161022e9190611540565b60405180910390f35b610251600480360381019061024c9190611723565b610b44565b005b61025b610e39565b60405161026891906118b0565b60405180910390f35b61028b60048036038101906102869190611723565b610e5d565b005b6102956112e5565b6040516102a291906118e9565b60405180910390f35b6102c560048036038101906102c09190611723565b611309565b005b6102cf611433565b6040516102dc9190611540565b60405180910390f35b60055f9054906101000a900460ff1681565b6002602052805f5260405f205f91509050805f0154905081565b5f60025f8681526020019081526020015f2090505f815f015403610361576040517fb05e92fa00000000000000000000000000000000000000000000000000000000815260040160405180910390fd5b60035f3373ffffffffffffffffffffffffffffffffffffffff1673ffffffffffffffffffffffffffffffffffffffff1681526020019081526020015f206001015f8681526020019081526020015f205f9054906101000a900460ff16156103f4576040517f646cf55800000000000000000000000000000000000000000000000000000000815260040160405180910390fd5b5f85338660405160200161040a93929190611987565b60405160208183030381529060405280519060200120905061042e84848884611439565b610464576040517fb05e92fa00000000000000000000000000000000000000000000000000000000815260040160405180910390fd5b600160035f3373ffffffffffffffffffffffffffffffffffffffff1673ffffffffffffffffffffffffffffffffffffffff1681526020019081526020015f206001015f8881526020019081526020015f205f6101000a81548160ff02191690831515021790555060035f3373ffffffffffffffffffffffffffffffffffffffff1673ffffffffffffffffffffffffffffffffffffffff1681526020019081526020015f205f0186908060018154018082558091505060019003905f5260205f20015f909190919091505560015f9054906101000a900473ffffffffffffffffffffffffffffffffffffffff1673ffffffffffffffffffffffffffffffffffffffff16636b09169530336040518363ffffffff1660e01b815260040161058a9291906119c3565b6020604051808303815f875af11580156105a6573d5f5f3e3d5ffd5b505050506040513d601f19601f820116820180604052508101906105ca91906119fe565b503373ffffffffffffffffffffffffffffffffffffffff16867ffe236dfc7ce073698734b89da1aee0e7551c9c6d264404c502e6e8fefc1132a8876040516106129190611540565b60405180910390a3505050505050565b60015f9054906101000a900473ffffffffffffffffffffffffffffffffffffffff1681565b606060035f8373ffffffffffffffffffffffffffffffffffffffff1673ffffffffffffffffffffffffffffffffffffffff1681526020019081526020015f205f018054806020026020016040519081016040528092919081815260200182805480156106d057602002820191905f5260205f20905b8154815260200190600101908083116106bc575b50505050509050919050565b5f60035f8473ffffffffffffffffffffffffffffffffffffffff1673ffffffffffffffffffffffffffffffffffffffff1681526020019081526020015f206001015f8381526020019081526020015f205f9054906101000a900460ff16905092915050565b5f5f9054906101000a900473ffffffffffffffffffffffffffffffffffffffff1673ffffffffffffffffffffffffffffffffffffffff163373ffffffffffffffffffffffffffffffffffffffff16146107cf576040517f08c379a00000000000000000000000000000000000000000000000000000000081526004016107c690611a83565b60405180910390fd5b60055f9054906101000a900460ff16610814576040517f87138d5c00000000000000000000000000000000000000000000000000000000815260040160405180910390fd5b5f60025f8481526020019081526020015f205f015414610860576040517fe57c036a00000000000000000000000000000000000000000000000000000000815260040160405180910390fd5b5f8103610899576040517f2c5211c600000000000000000000000000000000000000000000000000000000815260040160405180910390fd5b5f60045460015f9054906101000a900473ffffffffffffffffffffffffffffffffffffffff1673ffffffffffffffffffffffffffffffffffffffff16628cc262306040518263ffffffff1660e01b81526004016108f691906118b0565b602060405180830381865afa158015610911573d5f5f3e3d5ffd5b505050506040513d601f19601f8201168201806040525081019061093591906119fe565b61093f9190611ace565b90508082111561097b576040517f1d2651e700000000000000000000000000000000000000000000000000000000815260040160405180910390fd5b60405180602001604052808381525060025f8581526020019081526020015f205f820151815f01559050508160045f8282546109b79190611b01565b92505081905550827f40115073e889449dd03c9e59ce2c972024b789f3e051558cccd62b2a87ed4f7a836040516109ee9190611540565b60405180910390a2505050565b5f60015f9054906101000a900473ffffffffffffffffffffffffffffffffffffffff1673ffffffffffffffffffffffffffffffffffffffff16628cc262306040518263ffffffff1660e01b8152600401610a5591906118b0565b602060405180830381865afa158015610a70573d5f5f3e3d5ffd5b505050506040513d601f19601f82011682018060405250810190610a9491906119fe565b905090565b5f60045460015f9054906101000a900473ffffffffffffffffffffffffffffffffffffffff1673ffffffffffffffffffffffffffffffffffffffff16628cc262306040518263ffffffff1660e01b8152600401610af691906118b0565b602060405180830381865afa158015610b11573d5f5f3e3d5ffd5b505050506040513d601f19601f82011682018060405250810190610b3591906119fe565b610b3f9190611ace565b905090565b5f5f9054906101000a900473ffffffffffffffffffffffffffffffffffffffff1673ffffffffffffffffffffffffffffffffffffffff163373ffffffffffffffffffffffffffffffffffffffff1614610bd2576040517f08c379a0000000000000000000000000000000000000000000000000000000008152600401610bc990611a83565b60405180910390fd5b5f73ffffffffffffffffffffffffffffffffffffffff1660015f9054906101000a900473ffffffffffffffffffffffffffffffffffffffff1673ffffffffffffffffffffffffffffffffffffffff1614610c58576040517f28704e8e00000000000000000000000000000000000000000000000000000000815260040160405180910390fd5b5f73ffffffffffffffffffffffffffffffffffffffff168173ffffffffffffffffffffffffffffffffffffffff1603610cbd576040517f352b221300000000000000000000000000000000000000000000000000000000815260040160405180910390fd5b5f8190507f000000000000000000000000000000000000000000000000000000000000000073ffffffffffffffffffffffffffffffffffffffff168173ffffffffffffffffffffffffffffffffffffffff166351ed6a306040518163ffffffff1660e01b8152600401602060405180830381865afa158015610d41573d5f5f3e3d5ffd5b505050506040513d601f19601f82011682018060405250810190610d659190611b48565b73ffffffffffffffffffffffffffffffffffffffff1614610db2576040517f352b221300000000000000000000000000000000000000000000000000000000815260040160405180910390fd5b8060015f6101000a81548173ffffffffffffffffffffffffffffffffffffffff021916908373ffffffffffffffffffffffffffffffffffffffff1602179055508173ffffffffffffffffffffffffffffffffffffffff167f52ad60950523e96f61b7c8f7a33105ee888f5a2627b639a6e2e270b6da6a697760405160405180910390a25050565b5f5f9054906101000a900473ffffffffffffffffffffffffffffffffffffffff1681565b5f5f9054906101000a900473ffffffffffffffffffffffffffffffffffffffff1673ffffffffffffffffffffffffffffffffffffffff163373ffffffffffffffffffffffffffffffffffffffff1614610eeb576040517f08c379a0000000000000000000000000000000000000000000000000000000008152600401610ee290611a83565b60405180910390fd5b60055f9054906101000a900460ff1615610f31576040517f0dc149f000000000000000000000000000000000000000000000000000000000815260040160405180910390fd5b5f73ffffffffffffffffffffffffffffffffffffffff168173ffffffffffffffffffffffffffffffffffffffff1603610f96576040517f87138d5c00000000000000000000000000000000000000000000000000000000815260040160405180910390fd5b5f8190507f000000000000000000000000000000000000000000000000000000000000000073ffffffffffffffffffffffffffffffffffffffff168173ffffffffffffffffffffffffffffffffffffffff166351ed6a306040518163ffffffff1660e01b8152600401602060405180830381865afa15801561101a573d5f5f3e3d5ffd5b505050506040513d601f19601f8201168201806040525081019061103e9190611b48565b73ffffffffffffffffffffffffffffffffffffffff161461108b576040517f2c5211c600000000000000000000000000000000000000000000000000000000815260040160405180910390fd5b8060015f6101000a81548173ffffffffffffffffffffffffffffffffffffffff021916908373ffffffffffffffffffffffffffffffffffffffff1602179055507f000000000000000000000000000000000000000000000000000000000000000073ffffffffffffffffffffffffffffffffffffffff166340c10f1930670de0b6b3a76400006040518363ffffffff1660e01b815260040161112e929190611bac565b5f604051808303815f87803b158015611145575f5ffd5b505af1158015611157573d5f5f3e3d5ffd5b505050507f000000000000000000000000000000000000000000000000000000000000000073ffffffffffffffffffffffffffffffffffffffff1663095ea7b360015f9054906101000a900473ffffffffffffffffffffffffffffffffffffffff167fffffffffffffffffffffffffffffffffffffffffffffffffffffffffffffffff6040518363ffffffff1660e01b81526004016111f7929190611bd3565b6020604051808303815f875af1158015611213573d5f5f3e3d5ffd5b505050506040513d601f19601f820116820180604052508101906112379190611c24565b5060015f9054906101000a900473ffffffffffffffffffffffffffffffffffffffff1673ffffffffffffffffffffffffffffffffffffffff1663a694fc3a670de0b6b3a76400006040518263ffffffff1660e01b815260040161129a9190611c4f565b5f604051808303815f87803b1580156112b1575f5ffd5b505af11580156112c3573d5f5f3e3d5ffd5b50505050600160055f6101000a81548160ff0219169083151502179055505050565b7f000000000000000000000000000000000000000000000000000000000000000081565b5f5f9054906101000a900473ffffffffffffffffffffffffffffffffffffffff1673ffffffffffffffffffffffffffffffffffffffff163373ffffffffffffffffffffffffffffffffffffffff1614611397576040517f08c379a000000000000000000000000000000000000000000000000000000000815260040161138e90611a83565b60405180910390fd5b805f5f6101000a81548173ffffffffffffffffffffffffffffffffffffffff021916908373ffffffffffffffffffffffffffffffffffffffff1602179055508073ffffffffffffffffffffffffffffffffffffffff163373ffffffffffffffffffffffffffffffffffffffff167f8be0079c531659141344cd1fd0a4f28419497f9722a3daafe3b4186f6b6457e060405160405180910390a350565b60045481565b5f8315611482578360051b8501855b60011561147f578035841160051b8481528135602082185260405f209450602082019150828210611479575061147f565b50611448565b50505b8282149050949350505050565b5f8115159050919050565b6114a38161148f565b82525050565b5f6020820190506114bc5f83018461149a565b92915050565b5f5ffd5b5f5ffd5b5f819050919050565b6114dc816114ca565b81146114e6575f5ffd5b50565b5f813590506114f7816114d3565b92915050565b5f60208284031215611512576115116114c2565b5b5f61151f848285016114e9565b91505092915050565b5f819050919050565b61153a81611528565b82525050565b5f6020820190506115535f830184611531565b92915050565b61156281611528565b811461156c575f5ffd5b50565b5f8135905061157d81611559565b92915050565b5f5ffd5b5f5ffd5b5f5ffd5b5f5f83601f8401126115a4576115a3611583565b5b8235905067ffffffffffffffff8111156115c1576115c0611587565b5b6020830191508360208202830111156115dd576115dc61158b565b5b9250929050565b5f5f5f5f606085870312156115fc576115fb6114c2565b5b5f611609878288016114e9565b945050602061161a8782880161156f565b935050604085013567ffffffffffffffff81111561163b5761163a6114c6565b5b6116478782880161158f565b925092505092959194509250565b5f73ffffffffffffffffffffffffffffffffffffffff82169050919050565b5f819050919050565b5f61169761169261168d84611655565b611674565b611655565b9050919050565b5f6116a88261167d565b9050919050565b5f6116b98261169e565b9050919050565b6116c9816116af565b82525050565b5f6020820190506116e25f8301846116c0565b92915050565b5f6116f282611655565b9050919050565b611702816116e8565b811461170c575f5ffd5b50565b5f8135905061171d816116f9565b92915050565b5f60208284031215611738576117376114c2565b5b5f6117458482850161170f565b91505092915050565b5f81519050919050565b5f82825260208201905092915050565b5f819050602082019050919050565b611780816114ca565b82525050565b5f6117918383611777565b60208301905092915050565b5f602082019050919050565b5f6117b38261174e565b6117bd8185611758565b93506117c883611768565b805f5b838110156117f85781516117df8882611786565b97506117ea8361179d565b9250506001810190506117cb565b5085935050505092915050565b5f6020820190508181035f83015261181d81846117a9565b905092915050565b5f5f6040838503121561183b5761183a6114c2565b5b5f6118488582860161170f565b9250506020611859858286016114e9565b9150509250929050565b5f5f60408385031215611879576118786114c2565b5b5f611886858286016114e9565b92505060206118978582860161156f565b9150509250929050565b6118aa816116e8565b82525050565b5f6020820190506118c35f8301846118a1565b92915050565b5f6118d38261169e565b9050919050565b6118e3816118c9565b82525050565b5f6020820190506118fc5f8301846118da565b92915050565b5f819050919050565b61191c611917826114ca565b611902565b82525050565b5f8160601b9050919050565b5f61193882611922565b9050919050565b5f6119498261192e565b9050919050565b61196161195c826116e8565b61193f565b82525050565b5f819050919050565b61198161197c82611528565b611967565b82525050565b5f611992828661190b565b6020820191506119a28285611950565b6014820191506119b28284611970565b602082019150819050949350505050565b5f6040820190506119d65f8301856118a1565b6119e360208301846118a1565b9392505050565b5f815190506119f881611559565b92915050565b5f60208284031215611a1357611a126114c2565b5b5f611a20848285016119ea565b91505092915050565b5f82825260208201905092915050565b7f554e415554484f52495a454400000000000000000000000000000000000000005f82015250565b5f611a6d600c83611a29565b9150611a7882611a39565b602082019050919050565b5f6020820190508181035f830152611a9a81611a61565b9050919050565b7f4e487b71000000000000000000000000000000000000000000000000000000005f52601160045260245ffd5b5f611ad882611528565b9150611ae383611528565b9250828203905081811115611afb57611afa611aa1565b5b92915050565b5f611b0b82611528565b9150611b1683611528565b9250828201905080821115611b2e57611b2d611aa1565b5b92915050565b5f81519050611b42816116f9565b92915050565b5f60208284031215611b5d57611b5c6114c2565b5b5f611b6a84828501611b34565b91505092915050565b5f819050919050565b5f611b96611b91611b8c84611b73565b611674565b611528565b9050919050565b611ba681611b7c565b82525050565b5f604082019050611bbf5f8301856118a1565b611bcc6020830184611b9d565b9392505050565b5f604082019050611be65f8301856118a1565b611bf36020830184611531565b9392505050565b611c038161148f565b8114611c0d575f5ffd5b50565b5f81519050611c1e81611bfa565b92915050565b5f60208284031215611c3957611c386114c2565b5b5f611c4684828501611c10565b91505092915050565b5f602082019050611c625f830184611b9d565b9291505056fea264697066735822122003dc62327da450592cc6ba1a2268870eb9d674d18ee2036f0cdfc0d09c868d7364736f6c634300081b003360e060405234801561000f575f5ffd5b5060405161232438038061232483398181016040528101906100319190610332565b33838383825f908161004391906105ca565b50816001908161005391906105ca565b508060ff1660808160ff16815250504660a0818152505061007861012560201b60201c565b60c081815250505050508060065f6101000a81548173ffffffffffffffffffffffffffffffffffffffff021916908373ffffffffffffffffffffffffffffffffffffffff1602179055508073ffffffffffffffffffffffffffffffffffffffff165f73ffffffffffffffffffffffffffffffffffffffff167f8be0079c531659141344cd1fd0a4f28419497f9722a3daafe3b4186f6b6457e060405160405180910390a350505050610802565b5f7f8b73c3c69bb8fe3d512ecc4cf759cc79239f7b179b0ffacaa9a75d522b39400f5f6040516101559190610735565b60405180910390207fc89efdaa54c0f20c7adf612882df0950f5a951637e0307cdcb4c672f298b8bc646306040516020016101949594939291906107b1565b60405160208183030381529060405280519060200120905090565b5f604051905090565b5f5ffd5b5f5ffd5b5f5ffd5b5f5ffd5b5f601f19601f8301169050919050565b7f4e487b71000000000000000000000000000000000000000000000000000000005f52604160045260245ffd5b61020e826101c8565b810181811067ffffffffffffffff8211171561022d5761022c6101d8565b5b80604052505050565b5f61023f6101af565b905061024b8282610205565b919050565b5f67ffffffffffffffff82111561026a576102696101d8565b5b610273826101c8565b9050602081019050919050565b8281835e5f83830152505050565b5f6102a061029b84610250565b610236565b9050828152602081018484840111156102bc576102bb6101c4565b5b6102c7848285610280565b509392505050565b5f82601f8301126102e3576102e26101c0565b5b81516102f384826020860161028e565b91505092915050565b5f60ff82169050919050565b610311816102fc565b811461031b575f5ffd5b50565b5f8151905061032c81610308565b92915050565b5f5f5f60608486031215610349576103486101b8565b5b5f84015167ffffffffffffffff811115610366576103656101bc565b5b610372868287016102cf565b935050602084015167ffffffffffffffff811115610393576103926101bc565b5b61039f868287016102cf565b92505060406103b08682870161031e565b9150509250925092565b5f81519050919050565b7f4e487b71000000000000000000000000000000000000000000000000000000005f52602260045260245ffd5b5f600282049050600182168061040857607f821691505b60208210810361041b5761041a6103c4565b5b50919050565b5f819050815f5260205f209050919050565b5f6020601f8301049050919050565b5f82821b905092915050565b5f6008830261047d7fffffffffffffffffffffffffffffffffffffffffffffffffffffffffffffffff82610442565b6104878683610442565b95508019841693508086168417925050509392505050565b5f819050919050565b5f819050919050565b5f6104cb6104c66104c18461049f565b6104a8565b61049f565b9050919050565b5f819050919050565b6104e4836104b1565b6104f86104f0826104d2565b84845461044e565b825550505050565b5f5f905090565b61050f610500565b61051a8184846104db565b505050565b5b8181101561053d576105325f82610507565b600181019050610520565b5050565b601f8211156105825761055381610421565b61055c84610433565b8101602085101561056b578190505b61057f61057785610433565b83018261051f565b50505b505050565b5f82821c905092915050565b5f6105a25f1984600802610587565b1980831691505092915050565b5f6105ba8383610593565b9150826002028217905092915050565b6105d3826103ba565b67ffffffffffffffff8111156105ec576105eb6101d8565b5b6105f682546103f1565b610601828285610541565b5f60209050601f831160018114610632575f8415610620578287015190505b61062a85826105af565b865550610691565b601f19841661064086610421565b5f5b8281101561066757848901518255600182019150602085019450602081019050610642565b868310156106845784890151610680601f891682610593565b8355505b6001600288020188555050505b505050505050565b5f81905092915050565b5f819050815f5260205f209050919050565b5f81546106c1816103f1565b6106cb8186610699565b9450600182165f81146106e557600181146106fa5761072c565b60ff198316865281151582028601935061072c565b610703856106a3565b5f5b8381101561072457815481890152600182019150602081019050610705565b838801955050505b50505092915050565b5f61074082846106b5565b915081905092915050565b5f819050919050565b61075d8161074b565b82525050565b61076c8161049f565b82525050565b5f73ffffffffffffffffffffffffffffffffffffffff82169050919050565b5f61079b82610772565b9050919050565b6107ab81610791565b82525050565b5f60a0820190506107c45f830188610754565b6107d16020830187610754565b6107de6040830186610754565b6107eb6060830185610763565b6107f860808301846107a2565b9695505050505050565b60805160a05160c051611af861082c5f395f6108ba01525f61088601525f6108610152611af85ff3fe608060405234801561000f575f5ffd5b50600436106100fe575f3560e01c80637ecebe0011610095578063a9059cbb11610064578063a9059cbb146102ae578063d505accf146102de578063dd62ed3e146102fa578063f2fde38b1461032a576100fe565b80637ecebe00146102265780638da5cb5b1461025657806395d89b41146102745780639dc29fac14610292576100fe565b8063313ce567116100d1578063313ce5671461019e5780633644e515146101bc57806340c10f19146101da57806370a08231146101f6576100fe565b806306fdde0314610102578063095ea7b31461012057806318160ddd1461015057806323b872dd1461016e575b5f5ffd5b61010a610346565b60405161011791906112ca565b60405180910390f35b61013a6004803603810190610135919061137b565b6103d1565b60405161014791906113d3565b60405180910390f35b6101586104be565b60405161016591906113fb565b60405180910390f35b61018860048036038101906101839190611414565b6104c4565b60405161019591906113d3565b60405180910390f35b6101a661085f565b6040516101b3919061147f565b60405180910390f35b6101c4610883565b6040516101d191906114b0565b60405180910390f35b6101f460048036038101906101ef919061137b565b6108df565b005b610210600480360381019061020b91906114c9565b61097c565b60405161021d91906113fb565b60405180910390f35b610240600480360381019061023b91906114c9565b610991565b60405161024d91906113fb565b60405180910390f35b61025e6109a6565b60405161026b9190611503565b60405180910390f35b61027c6109cb565b60405161028991906112ca565b60405180910390f35b6102ac60048036038101906102a7919061137b565b610a57565b005b6102c860048036038101906102c3919061137b565b610af4565b6040516102d591906113d3565b60405180910390f35b6102f860048036038101906102f39190611570565b610c01565b005b610314600480360381019061030f919061160d565b610eee565b60405161032191906113fb565b60405180910390f35b610344600480360381019061033f91906114c9565b610f0e565b005b5f805461035290611678565b80601f016020809104026020016040519081016040528092919081815260200182805461037e90611678565b80156103c95780601f106103a0576101008083540402835291602001916103c9565b820191905f5260205f20905b8154815290600101906020018083116103ac57829003601f168201915b505050505081565b5f8160045f3373ffffffffffffffffffffffffffffffffffffffff1673ffffffffffffffffffffffffffffffffffffffff1681526020019081526020015f205f8573ffffffffffffffffffffffffffffffffffffffff1673ffffffffffffffffffffffffffffffffffffffff1681526020019081526020015f20819055508273ffffffffffffffffffffffffffffffffffffffff163373ffffffffffffffffffffffffffffffffffffffff167f8c5be1e5ebec7d5bd14f71427d1e84f3dd0314c0f7b2291e5b200ac8c7c3b925846040516104ac91906113fb565b60405180910390a36001905092915050565b60025481565b5f60065f9054906101000a900473ffffffffffffffffffffffffffffffffffffffff1673ffffffffffffffffffffffffffffffffffffffff163373ffffffffffffffffffffffffffffffffffffffff1603610624578160035f8673ffffffffffffffffffffffffffffffffffffffff1673ffffffffffffffffffffffffffffffffffffffff1681526020019081526020015f205f82825461056591906116d5565b925050819055508160035f8573ffffffffffffffffffffffffffffffffffffffff1673ffffffffffffffffffffffffffffffffffffffff1681526020019081526020015f205f82825401925050819055508273ffffffffffffffffffffffffffffffffffffffff168473ffffffffffffffffffffffffffffffffffffffff167fddf252ad1be2c89b69c2b068fc378daa952ba7f163c4a11628f55a4df523b3ef8460405161061391906113fb565b60405180910390a360019050610858565b5f60045f8673ffffffffffffffffffffffffffffffffffffffff1673ffffffffffffffffffffffffffffffffffffffff1681526020019081526020015f205f3373ffffffffffffffffffffffffffffffffffffffff1673ffffffffffffffffffffffffffffffffffffffff1681526020019081526020015f205490507fffffffffffffffffffffffffffffffffffffffffffffffffffffffffffffffff81146107505782816106d391906116d5565b60045f8773ffffffffffffffffffffffffffffffffffffffff1673ffffffffffffffffffffffffffffffffffffffff1681526020019081526020015f205f3373ffffffffffffffffffffffffffffffffffffffff1673ffffffffffffffffffffffffffffffffffffffff1681526020019081526020015f20819055505b8260035f8773ffffffffffffffffffffffffffffffffffffffff1673ffffffffffffffffffffffffffffffffffffffff1681526020019081526020015f205f82825461079c91906116d5565b925050819055508260035f8673ffffffffffffffffffffffffffffffffffffffff1673ffffffffffffffffffffffffffffffffffffffff1681526020019081526020015f205f82825401925050819055508373ffffffffffffffffffffffffffffffffffffffff168573ffffffffffffffffffffffffffffffffffffffff167fddf252ad1be2c89b69c2b068fc378daa952ba7f163c4a11628f55a4df523b3ef8560405161084a91906113fb565b60405180910390a360019150505b9392505050565b7f000000000000000000000000000000000000000000000000000000000000000081565b5f7f000000000000000000000000000000000000000000000000000000000000000046146108b8576108b361103a565b6108da565b7f00000000000000000000000000000000000000000000000000000000000000005b905090565b60065f9054906101000a900473ffffffffffffffffffffffffffffffffffffffff1673ffffffffffffffffffffffffffffffffffffffff163373ffffffffffffffffffffffffffffffffffffffff161461096e576040517f08c379a000000000000000000000000000000000000000000000000000000000815260040161096590611752565b60405180910390fd5b61097882826110c4565b5050565b6003602052805f5260405f205f915090505481565b6005602052805f5260405f205f915090505481565b60065f9054906101000a900473ffffffffffffffffffffffffffffffffffffffff1681565b600180546109d890611678565b80601f0160208091040260200160405190810160405280929190818152602001828054610a0490611678565b8015610a4f5780601f10610a2657610100808354040283529160200191610a4f565b820191905f5260205f20905b815481529060010190602001808311610a3257829003601f168201915b505050505081565b60065f9054906101000a900473ffffffffffffffffffffffffffffffffffffffff1673ffffffffffffffffffffffffffffffffffffffff163373ffffffffffffffffffffffffffffffffffffffff1614610ae6576040517f08c379a0000000000000000000000000000000000000000000000000000000008152600401610add90611752565b60405180910390fd5b610af0828261118f565b5050565b5f8160035f3373ffffffffffffffffffffffffffffffffffffffff1673ffffffffffffffffffffffffffffffffffffffff1681526020019081526020015f205f828254610b4191906116d5565b925050819055508160035f8573ffffffffffffffffffffffffffffffffffffffff1673ffffffffffffffffffffffffffffffffffffffff1681526020019081526020015f205f82825401925050819055508273ffffffffffffffffffffffffffffffffffffffff163373ffffffffffffffffffffffffffffffffffffffff167fddf252ad1be2c89b69c2b068fc378daa952ba7f163c4a11628f55a4df523b3ef84604051610bef91906113fb565b60405180910390a36001905092915050565b42841015610c44576040517f08c379a0000000000000000000000000000000000000000000000000000000008152600401610c3b906117ba565b60405180910390fd5b5f6001610c4f610883565b7f6e71edae12b1b97f4d1f60370fef10105fa2faae0126114a169c64845d6126c98a8a8a60055f8f73ffffffffffffffffffffffffffffffffffffffff1673ffffffffffffffffffffffffffffffffffffffff1681526020019081526020015f205f815480929190600101919050558b604051602001610cd4969594939291906117d8565b60405160208183030381529060405280519060200120604051602001610cfb9291906118ab565b604051602081830303815290604052805190602001208585856040515f8152602001604052604051610d3094939291906118e1565b6020604051602081039080840390855afa158015610d50573d5f5f3e3d5ffd5b5050506020604051035190505f73ffffffffffffffffffffffffffffffffffffffff168173ffffffffffffffffffffffffffffffffffffffff1614158015610dc357508773ffffffffffffffffffffffffffffffffffffffff168173ffffffffffffffffffffffffffffffffffffffff16145b610e02576040517f08c379a0000000000000000000000000000000000000000000000000000000008152600401610df99061196e565b60405180910390fd5b8560045f8373ffffffffffffffffffffffffffffffffffffffff1673ffffffffffffffffffffffffffffffffffffffff1681526020019081526020015f205f8973ffffffffffffffffffffffffffffffffffffffff1673ffffffffffffffffffffffffffffffffffffffff1681526020019081526020015f2081905550508573ffffffffffffffffffffffffffffffffffffffff168773ffffffffffffffffffffffffffffffffffffffff167f8c5be1e5ebec7d5bd14f71427d1e84f3dd0314c0f7b2291e5b200ac8c7c3b92587604051610edd91906113fb565b60405180910390a350505050505050565b6004602052815f5260405f20602052805f5260405f205f91509150505481565b60065f9054906101000a900473ffffffffffffffffffffffffffffffffffffffff1673ffffffffffffffffffffffffffffffffffffffff163373ffffffffffffffffffffffffffffffffffffffff1614610f9d576040517f08c379a0000000000000000000000000000000000000000000000000000000008152600401610f9490611752565b60405180910390fd5b8060065f6101000a81548173ffffffffffffffffffffffffffffffffffffffff021916908373ffffffffffffffffffffffffffffffffffffffff1602179055508073ffffffffffffffffffffffffffffffffffffffff163373ffffffffffffffffffffffffffffffffffffffff167f8be0079c531659141344cd1fd0a4f28419497f9722a3daafe3b4186f6b6457e060405160405180910390a350565b5f7f8b73c3c69bb8fe3d512ecc4cf759cc79239f7b179b0ffacaa9a75d522b39400f5f60405161106a9190611a28565b60405180910390207fc89efdaa54c0f20c7adf612882df0950f5a951637e0307cdcb4c672f298b8bc646306040516020016110a9959493929190611a3e565b60405160208183030381529060405280519060200120905090565b8060025f8282546110d59190611a8f565b925050819055508060035f8473ffffffffffffffffffffffffffffffffffffffff1673ffffffffffffffffffffffffffffffffffffffff1681526020019081526020015f205f82825401925050819055508173ffffffffffffffffffffffffffffffffffffffff165f73ffffffffffffffffffffffffffffffffffffffff167fddf252ad1be2c89b69c2b068fc378daa952ba7f163c4a11628f55a4df523b3ef8360405161118391906113fb565b60405180910390a35050565b8060035f8473ffffffffffffffffffffffffffffffffffffffff1673ffffffffffffffffffffffffffffffffffffffff1681526020019081526020015f205f8282546111db91906116d5565b925050819055508060025f82825403925050819055505f73ffffffffffffffffffffffffffffffffffffffff168273ffffffffffffffffffffffffffffffffffffffff167fddf252ad1be2c89b69c2b068fc378daa952ba7f163c4a11628f55a4df523b3ef8360405161124e91906113fb565b60405180910390a35050565b5f81519050919050565b5f82825260208201905092915050565b8281835e5f83830152505050565b5f601f19601f8301169050919050565b5f61129c8261125a565b6112a68185611264565b93506112b6818560208601611274565b6112bf81611282565b840191505092915050565b5f6020820190508181035f8301526112e28184611292565b905092915050565b5f5ffd5b5f73ffffffffffffffffffffffffffffffffffffffff82169050919050565b5f611317826112ee565b9050919050565b6113278161130d565b8114611331575f5ffd5b50565b5f813590506113428161131e565b92915050565b5f819050919050565b61135a81611348565b8114611364575f5ffd5b50565b5f8135905061137581611351565b92915050565b5f5f60408385031215611391576113906112ea565b5b5f61139e85828601611334565b92505060206113af85828601611367565b9150509250929050565b5f8115159050919050565b6113cd816113b9565b82525050565b5f6020820190506113e65f8301846113c4565b92915050565b6113f581611348565b82525050565b5f60208201905061140e5f8301846113ec565b92915050565b5f5f5f6060848603121561142b5761142a6112ea565b5b5f61143886828701611334565b935050602061144986828701611334565b925050604061145a86828701611367565b9150509250925092565b5f60ff82169050919050565b61147981611464565b82525050565b5f6020820190506114925f830184611470565b92915050565b5f819050919050565b6114aa81611498565b82525050565b5f6020820190506114c35f8301846114a1565b92915050565b5f602082840312156114de576114dd6112ea565b5b5f6114eb84828501611334565b91505092915050565b6114fd8161130d565b82525050565b5f6020820190506115165f8301846114f4565b92915050565b61152581611464565b811461152f575f5ffd5b50565b5f813590506115408161151c565b92915050565b61154f81611498565b8114611559575f5ffd5b50565b5f8135905061156a81611546565b92915050565b5f5f5f5f5f5f5f60e0888a03121561158b5761158a6112ea565b5b5f6115988a828b01611334565b97505060206115a98a828b01611334565b96505060406115ba8a828b01611367565b95505060606115cb8a828b01611367565b94505060806115dc8a828b01611532565b93505060a06115ed8a828b0161155c565b92505060c06115fe8a828b0161155c565b91505092959891949750929550565b5f5f60408385031215611623576116226112ea565b5b5f61163085828601611334565b925050602061164185828601611334565b9150509250929050565b7f4e487b71000000000000000000000000000000000000000000000000000000005f52602260045260245ffd5b5f600282049050600182168061168f57607f821691505b6020821081036116a2576116a161164b565b5b50919050565b7f4e487b71000000000000000000000000000000000000000000000000000000005f52601160045260245ffd5b5f6116df82611348565b91506116ea83611348565b9250828203905081811115611702576117016116a8565b5b92915050565b7f554e415554484f52495a454400000000000000000000000000000000000000005f82015250565b5f61173c600c83611264565b915061174782611708565b602082019050919050565b5f6020820190508181035f83015261176981611730565b9050919050565b7f5045524d49545f444541444c494e455f455850495245440000000000000000005f82015250565b5f6117a4601783611264565b91506117af82611770565b602082019050919050565b5f6020820190508181035f8301526117d181611798565b9050919050565b5f60c0820190506117eb5f8301896114a1565b6117f860208301886114f4565b61180560408301876114f4565b61181260608301866113ec565b61181f60808301856113ec565b61182c60a08301846113ec565b979650505050505050565b5f81905092915050565b7f19010000000000000000000000000000000000000000000000000000000000005f82015250565b5f611875600283611837565b915061188082611841565b600282019050919050565b5f819050919050565b6118a56118a082611498565b61188b565b82525050565b5f6118b582611869565b91506118c18285611894565b6020820191506118d18284611894565b6020820191508190509392505050565b5f6080820190506118f45f8301876114a1565b6119016020830186611470565b61190e60408301856114a1565b61191b60608301846114a1565b95945050505050565b7f494e56414c49445f5349474e45520000000000000000000000000000000000005f82015250565b5f611958600e83611264565b915061196382611924565b602082019050919050565b5f6020820190508181035f8301526119858161194c565b9050919050565b5f81905092915050565b5f819050815f5260205f209050919050565b5f81546119b481611678565b6119be818661198c565b9450600182165f81146119d857600181146119ed57611a1f565b60ff1983168652811515820286019350611a1f565b6119f685611996565b5f5b83811015611a17578154818901526001820191506020810190506119f8565b838801955050505b50505092915050565b5f611a3382846119a8565b915081905092915050565b5f60a082019050611a515f8301886114a1565b611a5e60208301876114a1565b611a6b60408301866114a1565b611a7860608301856113ec565b611a8560808301846114f4565b9695505050505050565b5f611a9982611348565b9150611aa483611348565b9250828201905080821115611abc57611abb6116a8565b5b9291505056fea26469706673582212205d30578e1b2a50145d82d71b67d57c31ba45a54140bdffecf7664cbe8799044164736f6c634300081b0033","linkReferences":{}},"methodIdentifiers":{"claimReward(bytes32,uint256,bytes32[])":"2866b95a","competitionToken()":"d1ef5cdf","competitions(bytes32)":"252d34b6","createCompetition(bytes32,uint256)":"4d432178","getAvailableBGT()":"5913e680","getEarnedBGT()":"589c7f64","getUserCompetitions(address)":"3d1960bb","hasUserClaimed(address,bytes32)":"3ff731f6","initialize(address)":"c4d66de8","initialized()":"158ef93e","owner()":"8da5cb5b","registerRewardVault(address)":"75215253","rewardVault()":"3a2c6777","totalAllocatedBGT()":"fbc69f61","transferOwnership(address)":"f2fde38b"},"id":23}